:10003100E4FDFCC3ED9FEC9E5015E4FBFA0BBB0005
:0F004100010ABA07F8BBD0F50DBD00010C80E431
:01005000228D
:0D005100C292D293D296C297D294D2952239
:0D005E00D292C293C296D297D294D295222C
:0D006B00C292C293D296C297D294D295222F
:0D007800C292D293C296C297D294D2952222
:0D008500C292C293C296C297D294D2952225
:100003001200517F647E0012003112005E7FC87EB1
:100013000012003112006B1200311200781200310D
:0E0023001200857F900E12003112003180DC39
:0300000002009269
:0C009200787FE4F6D8FD758107020003BA
:00000001FF
