:10004A00E4FDFCC3ED9FEC9E5015E4FBFA0BBB00EC
:0F005A00010ABA07F8BBD0F50DBD00010C80E418
:010069002274
:0D006A00C292D293D296C297D294D2952220
:0D007700D292C293C296D297D294D2952213
:0D008400C292C293D296C297D294D2952216
:0D009100C292D293C296C297D294D2952209
:0D009E00C292C293C296C297D294D295220C
:10000300E4F97F017E0012004A20B6F409B932F206
:10001300C2A37F327E0012004AD2A312006A7F6419
:1000230012004A1200777FC87E0012004A12008431
:1000330012004A12009112004A12009E7F900E1283
:07004300004A12004A80DCB4
:030000000200AB50
:0C00AB00787FE4F6D8FD758107020003A1
:00000001FF
