:100597003D3D52616E67652046696E6465723D3DFB
:1005A70000303132333435363738392E2D4D4469E2
:1005B7007374616E63653A3030302E30636D00219D
:1005C7002121204F7574206F662072616E67650068
:10066B00040E0000000002080000040A0000000055
:02067B00C100BC
:100628008F1A120602851A80D2907F0112069CC288
:10063800917F0112069C120698120698D2A57F0196
:0306480002069C0B
:0405D7007D017C0026
:1005DB008F1AED4C6003120602851A80C2907F01C0
:1005EB0012069CC2917F0112069C12069812069865
:0705FB00D2A57F0102069C5E
:100602007580FFC2907F0112069CD2917F01120673
:100612009C120698120698D2A57F0112069CE580CC
:0606220020E7EEAF80228C
:10050E00E4F580FDFC7F381205DB120003E4FDFCF0
:10051E007F381205DB120003E4FDFC7F381205DB89
:10052E001200037F381205D77F081205D77D017C94
:10053E00007F011205DB7D017C007F061205DB7D4D
:08054E00017C007F0C0205DBBB
:07064B009005A893FB7D015F
:100652008B1953050153070FED600343074043070E
:09066200801205D7AF1902062829
:080556007A057BB57D01E4FF8D
:08055E008F148D158A168B170E
:10056600E4F51853150153140FE5172518F582E421
:100576003516F583E493FBD394194014E514D3940C
:100586000F50E6AD15AF141206520518051480D9A2
:010596002242
:040003007F057E00F7
:100007007D0A7C3200DCFDDDF9EF1F70011E144E06
:0200170070EE89
:0100190022C4
:04069800C2A57F0177
:07069C007E0A00DEFDDFF91C
:0106A3002234
:0806C100D2A6E4F580C2A622D6
:0D067E008F148D15C292D293D296C297228E
:0906B800C292C293C296C29722BD
:0D068B008F148D15D292C293C296C2972291
:1002D000AF8DEFFEAD8B7C00E42DF509EC3EF5080B
:1002E000E4F58DF58BE50925E0FFE50833FEE48FA5
:1002F0000D8E0CF50BF50AAD0BAC0A1201247B7BBD
:100300007A14792E783E12001E1201628F0D8E0C27
:100310008D0B8C0AE47F2C7E01FDFCAB0DAA0CA991
:100320000BA80AD31202BF501F2001061206B812F2
:100330000003D201C2A37F327E00120007D2A37D48
:10034000787F7812068B8009C2017DB47FB41206D3
:100350007EE47F887E13FDFCAB0DAA0CA90BA80AD6
:10036000C31202BF500330000DC2007A057BC67D68
:1003700001E4FF02055EE47B0AFAF9F8AF0DAE0C6A
:10038000AD0BAC0A12021FAF038F0EE47B0AFAF921
:10039000F8AF0DAE0CAD0BAC0A12021FE47B0AFAEB
:1003A000F9F812021FAF038F0FE47B64FAF9F8AF7C
:1003B0000DAE0CAD0BAC0A12021FE47B0AFAF9F881
:1003C00012021FAF038F10E47BE87A03F9F8AF0D38
:1003D000AE0CAD0BAC0A12021F8F11120556E511BF
:1003E0007F0912064BE5107F0A12064BE50F9005B8
:1003F000A893FB7D017F0B1206529005B2E493FB9C
:100400007D017F0C120652E50E9005A893FB7D013D
:060410007F0D12065222CE
:03001B000206C911
:0506C900D200C2A032C6
:0A06A400D28E20A0FDC28E0202D00B
:0A06AE00D2A17F0212069CC2A12215
:1004A2001206C17F907E0112000712050E12000390
:1004B2007A057B97E4FDFF12055E1205564389100B
:1004C200D2AFE4F58DF58BD2ABC201E4FB7F017EA6
:1004D2000012000720B6F40BBB32F2C2A37F327EB9
:1004E20000120007D2A3D2A01206AE751203751332
:1004F200B730A0031206A4E513151370021512D328
:0C050200E5139400E512940050E780DA45
:10001E00EC4D6011E8497017ED33EC3304600DE4DC
:10002E00FCFFFEFD22E933E8330470F80201CE1224
:10003E00019958046009E4CC248150062850090225
:10004E0001D82840030201D5C0E0EB4A7044B980C4
:10005E0006D0E0FB0201C4EF4E701CBD8008EBFF22
:10006E00EAFEE9FD80EBE98DF0A4FEE5F002010762
:10007E00E9CDF9EAFEEBFFEF89F0A4FCE5F0CE89BD
:10008E00F0A42EFFE435F0CD89F0A42DFEE435F07A
:10009E008067EF4E7005BD80D780C3EF8BF0A4ACA8
:1000AE00F0EE8BF0A42CFCE435F0F8EF8AF0A42CE3
:1000BE00E5F038FCE433CB8DF0A42CFCE5F03BF8F6
:1000CE00EE8AF0A42CFCE5F038F8E433CF89F0A4E6
:1000DE002CFCE5F038CF3400CE89F0A42FFFE5F0EC
:1000EE003EFEE433C98DF0A42EFEE5F039CD8AF044
:1000FE00A42FFFE5F03EFEE43DFD33D0E0FB5007BC
:10010E000BBB000F0201D8EC2CFCEF33FFEE33FEDD
:06011E00ED33FD0201B00B
:1001240075F020800E75F010800575F0087D007E56
:10013400007F003392D530D5031202B1EC33401066
:10014400EF33FFEE33FEED33FDEC33FCD5F0ED225F
:0E015400E5F0247EA2D513CC92E7CDCEFF229B
:10016200EDD2E7CD33EC3392D524814006E4FFFE95
:10017200FDFC22FCE4CFCECDCC24E0501174FF80F4
:10018200EDC3CC13CCCD13CDCE13CECF13CF047091
:07019200F030D5DE0202B1DE
:10019900E9D2E7C933E833F892D5EDD2E7CD33ECAC
:0701A90033FC5002B2D52225
:1001B000EC30E7100FBF000C0EBE00080DBD0004B0
:1001C0000BEB6014A2D5EB13FCED92E7FD2274FF5C
:1001D000FCFDFEFF22E480F8A2D574FF13FC7D80B5
:0301E000E480EFC9
:03000000020416E1
:0C041600787FE4F6D8FD75812002045DBB
:1001E30075F008758200EF2FFFEE33FECD33CDCCD3
:1001F30033CCC58233C5829BED9AEC99E582984056
:100203000CF582EE9BFEED9AFDEC99FC0FD5F0D632
:10021300E4CEFBE4CDFAE4CCF9A88222B800C1B95C
:100223000059BA002DEC8BF084CFCECDFCE5F0CB9A
:10023300F97818EF2FFFEE33FEED33FDEC33FCEBD3
:1002430033FB10D703994004EB99FB0FD8E5E4F98E
:10025300FA227818EF2FFFEE33FEED33FDEC33FC7B
:10026300C933C910D7059BE99A4007EC9BFCE99A6F
:10027300F90FD8E0E4C9FAE4CCFB2275F010EF2FB4
:10028300FFEE33FEED33FDCC33CCC833C810D707B4
:100293009BEC9AE899400AED9BFDEC9AFCE899F8EF
:0E02A3000FD5F0DAE4CDFBE4CCFAE4C8F92282
:0E02B100C3E49FFFE49EFEE49DFDE49CFC225E
:1002BF00EB9FF5F0EA9E42F0E99D42F0E89C45F095
:0102CF00220C
:100422000204A2E493A3F8E493A34003F68001F24A
:1004320008DFF48029E493A3F85407240CC8C333DB
:10044200C4540F4420C8834004F456800146F6DFAA
:10045200E4800B010204081020408090066BE47EC9
:10046200019360BCA3FF543F30E509541FFEE4939F
:10047200A360010ECF54C025E060A840B8E493A366
:10048200FAE493A3F8E493A3C8C582C8CAC583CA91
:10049200F0A3C8C582C8CAC583CADFE9DEE780BE49
:01067D00007C
:00000001FF
