:10016300010800010C00010D00010B00C180C181D9
:04017300020900007D
:10010700E4FDFCC3ED9FEC9E5015E4FBFA0BBB002E
:0F011700010ABA07F8BBD0F50DBD00010C80E45A
:0101260022B6
:0F017800750C07750B07C292D293D296C29722CD
:0D018700750C07750B07D296C297C2952222
:0D019400750C07750B07C292D293C294221E
:10012700300118E508D3950C5004D2958002C2958A
:0E013700E508C394144006E4F50822C29522A0
:10014500300018E50DD3950B5004D2948002C2946B
:0E015500E50DC394144006E4F50D22C2942279
:03000B000200E60A
:1000E600C0E0C0D0758CFC758A18050AE50A700256
:1000F60005090508050D120127120145D0D0D0E0EB
:0101060032C6
:10009A00E4F590E4F97F017E0012010720B7F40924
:1000AA00B932F2C2A37F327E00120107D2A3758948
:1000BA0001758CFC758A18D28CD2A9D2AF20B308EC
:1000CA0020B20512017880F530B30620B20312017E
:0C00DA008730B2E920B3E612019480E107
:0300000002000EED
:0C000E00787FE4F6D8FD758120020055D3
:10001A0002009AE493A3F8E493A34003F68001F262
:10002A0008DFF48029E493A3F85407240CC8C333E7
:10003A00C4540F4420C8834004F456800146F6DFB6
:10004A00E4800B0102040810204080900163E47EE2
:10005A00019360BCA3FF543F30E509541FFEE493AB
:10006A00A360010ECF54C025E060A840B8E493A372
:10007A00FAE493A3F8E493A3C8C582C8CAC583CA9D
:10008A00F0A3C8C582C8CAC583CADFE9DEE780BE55
:010177000087
:00000001FF
