:10016900010800010C00010D00010B00C180C181D3
:040179000209000077
:10010D00E4FDFCC3ED9FEC9E5015E4FBFA0BBB0028
:0F011D00010ABA07F8BBD0F50DBD00010C80E454
:01012C0022B0
:0F017E00750C0A750B0AC292D293D296C29722C1
:0F018D00750C08750B08D292C293C296D29722B6
:0A019C00750B08D296C297C2952297
:0A01A600750C08C292D293C2942295
:10012D00300118E508D3950C5004D2958002C29584
:0E013D00E508C394144006E4F50822C295229A
:10014B00300018E50DD3950B5004D2948002C29465
:0E015B00E50DC394144006E4F50D22C2942273
:03000B000200EC04
:1000EC00C0E0C0D0758CFC758A18050AE50A700250
:1000FC0005090508050D12012D12014BD0D0D0E0D9
:01010C0032C0
:10009A00E4F590E4F97F017E0012010D20B7F4091E
:1000AA00B932F2C2A37F327E0012010DD2A3758942
:1000BA0001758CFC758A18D28CD2A9D2AF30B508DA
:1000CA0030B40512017E80F530B50620B403120162
:1000DA009C30B40620B5031201A620B4E020B5DD99
:0200EA0080DBB9
:0300000002000EED
:0C000E00787FE4F6D8FD758120020055D3
:10001A0002009AE493A3F8E493A34003F68001F262
:10002A0008DFF48029E493A3F85407240CC8C333E7
:10003A00C4540F4420C8834004F456800146F6DFB6
:10004A00E4800B0102040810204080900169E47EDC
:10005A00019360BCA3FF543F30E509541FFEE493AB
:10006A00A360010ECF54C025E060A840B8E493A372
:10007A00FAE493A3F8E493A3C8C582C8CAC583CA9D
:10008A00F0A3C8C582C8CAC583CADFE9DEE780BE55
:01017D000081
:00000001FF
