:0D033B00011B00041000000000021800006B
:10031B00E4FDFCC3ED9FEC9E5015E4FBFA0BBB0018
:0F032B00010ABA07F8BBD0F50DBD00010C80E444
:01033A0022A0
:03000B0002000EE2
:10000E00C0E0C0F0C083C082C0D075D008AF8CEF06
:10001E00FEAD8A7C00E42DFFEC3EFEE48F178E16BB
:10002E00F515F514F58CF58A7F407E1FFDAB17AAEA
:10003E0016A915A814D31202274020E47FB07E36ED
:10004E00FDFCA8141202275012751F00751E0075B4
:10005E001D00751C00751B0102014EE51B6401603D
:10006E000302014E7FAA7E05FDFCAB17AA16A91549
:10007E00A814D31202274047E47FB87E0BFDFCA8DC
:10008E00141202275039E47B08FAF9F8AF1FAE1E9E
:10009E00AD1DAC1C12019574102FF8E6C3134480ED
:1000AE00FEC00E74102FF8D0E0F6E51F2401F51FE8
:1000BE00E4351EF51EE4351DF51DE4351CF51CE476
:1000CE007FBC7E02FDFCAB17AA16A915A814D3128D
:1000DE0002274040E47FAA7E05FDFCA814120227E9
:1000EE005032E47B08FAF9F8AF1FAE1EAD1DAC1C02
:1000FE0012019574102FF8C008E6C313D008F6E568
:10010E001F2401F51FE4351EF51EE4351DF51DE413
:10011E00351CF51CE47F20FEFDFCAB1FAA1EA91D9D
:10012E00A81CC31202277018F51FF51EF51DF51C2D
:10013E00F51BE513F4B51205751A018003751A0047
:0B014E00D0D0D082D083D0F0D0E032BF
:09034900C292D293D296C297220F
:09035200D292C293C296D2972206
:09035B00C292D293C296C297220D
:09036400C292C293D296C2972204
:09036D00C292C293C296C297220B
:1002C400E4F51FF51EF51DF51CF51BD288D2A875A3
:1002D4008911F58CF58AD28CD2AF7F64FE12031B90
:1002E400E51AB401FBE51224F8601A24EC6020241A
:1002F400CA600D24F8601324427017120349801257
:10030400120352800D120364800812035B800312EF
:07031400036DE4F51A80C936
:03000000020238C1
:0C023800787FE4F6D8FD75811F02027F7C
:1001590075F008758200EF2FFFEE33FECD33CDCC5D
:1001690033CCC58233C5829BED9AEC99E5829840E0
:100179000CF582EE9BFEED9AFDEC99FC0FD5F0D6BD
:10018900E4CEFBE4CDFAE4CCF9A88222B800C1B9E7
:100199000059BA002DEC8BF084CFCECDFCE5F0CB25
:1001A900F97818EF2FFFEE33FEED33FDEC33FCEB5E
:1001B90033FB10D703994004EB99FB0FD8E5E4F919
:1001C900FA227818EF2FFFEE33FEED33FDEC33FC06
:1001D900C933C910D7059BE99A4007EC9BFCE99AFA
:1001E900F90FD8E0E4C9FAE4CCFB2275F010EF2F3F
:1001F900FFEE33FEED33FDCC33CCC833C810D7073F
:100209009BEC9AE899400AED9BFDEC9AFCE899F879
:0E0219000FD5F0DAE4CDFBE4CCFAE4C8F9220C
:10022700EB9FF5F0EA9E42F0E99D42F0E89C45F02D
:0102370022A4
:100244000202C4E493A3F8E493A34003F68001F20A
:1002540008DFF48029E493A3F85407240CC8C333BB
:10026400C4540F4420C8834004F456800146F6DF8A
:10027400E4800B010204081020408090033BE47EDC
:10028400019360BCA3FF543F30E509541FFEE4937F
:10029400A360010ECF54C025E060A840B8E493A346
:1002A400FAE493A3F8E493A3C8C582C8CAC583CA71
:1002B400F0A3C8C582C8CAC583CADFE9DEE780BE29
:0103480000B4
:00000001FF
