:10011200CAD5B5BDD6B8C1EEA3ACCFF2C7B0210ADD
:1001220000CAD5B5BDD6B8C1EEA3ACCFF2BAF321A1
:100132000A00CAD5B5BDD6B8C1EEA3ACCFF2D7F38B
:10014200210A00CAD5B5BDD6B8C1EEA3ACCFF2D351
:10015200D2210A00CAD5B5BDD6B8C1EEA3ACCDA393
:05016200D6B9210A00DE
:10021100C101C100010E00010D0005080000000030
:0102210000DC
:10000300E4FDFCC3ED9FEC9E5015E4FBFA0BBB0033
:0F001300010ABA07F8BBD0F50DBD00010C80E45F
:0100220022BB
:1001AD00E4FFEF90011293600AF5993099FDC29921
:0301BD000F80EFC1
:0101C000221C
:1001C100E4FFEF90012393600AF5993099FDC299FC
:0301D1000F80EFAD
:0101D4002208
:1001D500E4FFEF90013493600AF5993099FDC299D7
:0301E5000F80EF99
:0101E80022F4
:1001E900E4FFEF90014593600AF5993099FDC299B2
:0301F9000F80EF85
:0101FC0022E0
:1001FD00E4FFEF90015693600AF5993099FDC2998D
:03020D000F80EF70
:0102100022CB
:09022300C292D293D296C2972236
:09022C00D292C293C296D297222D
:09023500D292C293D296C2972224
:09023E00C292D293C296D297221B
:09024700C292C293C296C2972232
:0300230002016770
:10016700C0E0C0D075D000C000309833C2988599E0
:100177000DE50DB44F0FE50E700B7408250EF8A6AC
:100187000DD200801A300017050E7408250EF8A648
:100197000DE50EC394024007750E00C200D201D0D0
:0601A70000D0D0D0E032D0
:1000B200758920758DFD758BFD759850E4F587D295
:1000C2008ED2ACD2AF3001FDC201E508B44FF6E5E5
:1000D20009B44EF1E50A24BE601614601B146020B8
:1000E20024FE6024240570DD1201AD12022380D5A6
:1000F2001201C112022C80CD1201E912023580C513
:100102001201D512023E80BD1201FD12024780B5D6
:03000000020026D5
:0C002600787FE4F6D8FD75812002006DA3
:100032000200B2E493A3F8E493A34003F68001F232
:1000420008DFF48029E493A3F85407240CC8C333CF
:10005200C4540F4420C8834004F456800146F6DF9E
:10006200E4800B0102040810204080900211E47E1B
:10007200019360BCA3FF543F30E509541FFEE49393
:10008200A360010ECF54C025E060A840B8E493A35A
:10009200FAE493A3F8E493A3C8C582C8CAC583CA85
:1000A200F0A3C8C582C8CAC583CADFE9DEE780BE3D
:0102220000DB
:00000001FF
