:1006C3003D3D52616E67652046696E6465723D3DCE
:1006D30000303132333435363738392E2D4D4469B5
:1006E3007374616E63653A3030302E30636D002170
:1006F3002121204F7574206F662072616E6765003B
:1007990002080000040A00000000C100040E000065
:0207A90000004E
:08000300D2A6E4F580C2A6229A
:100786008F1A120771851A80D290C291C2A5C2A58E
:03079600D2A522C7
:040723007D017C00D8
:100727008F1AED4C6003120771851A80C290C2912F
:07073700C2A5C2A5D2A52254
:100771007580FFC290D291C2A5C2A5D2A5E5802005
:05078100E7FBAF802240
:10063A00E4F580FDFC7F381207271207ACE4FDFCC5
:10064A007F381207271207ACE4FDFC7F3812072710
:10065A001207AC7F381207237F081207237D017C1B
:10066A00007F011207277D017C007F061207277D84
:08067A00017C007F0C02072740
:070703009006D493FB7D0179
:10070A008B1953050153070FED6003430740430755
:09071A0080120723AF19020786C3
:080682007A067BE17D01E4FF33
:08068A008F148D158A168B17E1
:10069200E4F51853150153140FE5172518F582E4F4
:1006A2003516F583E493FBD394194014E514D394DF
:1006B2000F50E6AD15AF1412070A0518051480D9BC
:0106C2002215
:0E07AC007FB07E15EF1FAC0670011E4C70F67C
:0107BA00221C
:100758007D05AC051DEC60107E1C7F65EF1FAA06A9
:0807680070011E4A60EC80F4F0
:010770002266
:10045800AF8CEFFEAD8A7C00E42DF509EC3EF50883
:10046800E4F58CF58AAC08AD091202B17B9A7A9949
:1004780079D9783F120106E4FBFA79207841120213
:100488000FE4FBFA792078411200151202EA8F0D69
:100498008E0C8D0B8C0AE47F587E1BFDFCAB0DAADD
:1004A8000CA90BA80AC3120447500330000DC20060
:1004B8007A067BF27D01E4FF02068AE47B0AFAF9F8
:1004C800F8AF0DAE0CAD0BAC0A1203A7AF038F0E3D
:1004D800E47B0AFAF9F8AF0DAE0CAD0BAC0A1203C7
:1004E800A7E47B0AFAF9F81203A7AF038F0FE47B9E
:1004F80064FAF9F8AF0DAE0CAD0BAC0A1203A7E421
:100508007B0AFAF9F81203A7AF038F10E47BE87AA5
:1005180003F9F8AF0DAE0CAD0BAC0A1203A78F119F
:10052800120682E5117F09120703E5107F0A1207F8
:1005380003E50F9006D493FB7D017F0B12070A9009
:1005480006DEE493FB7D017F0C12070AE50E900698
:0B055800D493FB7D017F0D12070A22E7
:03000B000207C524
:0507C500D200C2A032C9
:10073E00D2A1000000000000000000000000000038
:0A074E0000000000000000C2A1221C
:0A07BB00D28C20A0FDC28C0204586D
:1005EF0012075812000312063A1207AC7A067BC3A1
:1005FF00E4FDFF12068A120682758901D2AFE4F577
:10060F008CF58AD2A9D2A012073E75121D7513560A
:10061F0030A0031207BBE513151370021512D3E5B3
:0B062F00139400E512940050E780DAFD
:10000E00020356E86480F8E933E83360110460F0C7
:10001E00ED33EC337009E8FCE9FDEAFEEBFF220458
:10002E0060DED3EB9FEA9EE99DE8C2E78CF0C2F753
:10003E0095F0400CE8CCF8E9CDF9EACEFAEBCFFB1F
:10004E0012032185D0F05804700320D5B3E8047054
:10005E00075002B2D502036092D5EC0460F7E4CCEF
:10006E00C0E0C398F8603B94186008400DD0E0FBE8
:10007E00020338E4FBFAC9FC8028E830E406E4C940
:10008E00FBE4CAFCE830E305E4C9CACBFCE854073C
:10009E006010F8C3E913F9EA13FAEB13FBEC13FC47
:1000AE00D8F130F52FC3E49CFCEF9BFFEE9AFEEDEA
:1000BE0099FDD0E0FBEF4E4D4C701222DB03020394
:1000CE005DEC2CFCEF33FFEE33FEED33FDED30E750
:1000DE00EB020338EF2BFFEE3AFEED39FDD0E0FBDD
:1000EE0050130BBB0003020360ED13FDEE13FEEF86
:0800FE0013FFEC13FC020338B0
:10010600EC4D6011E8497017ED33EC3304600DE4F3
:10011600FCFFFEFD22E933E8330470F802035612B1
:10012600032158046009E4CC2481500628500902B2
:10013600036028400302035DC0E0EB4A7044B980C7
:1001460006D0E0FB02034CEF4E701CBD8008EBFFAF
:10015600EAFEE9FD80EBE98DF0A4FEE5F00201EF91
:10016600E9CDF9EAFEEBFFEF89F0A4FCE5F0CE89D4
:10017600F0A42EFFE435F0CD89F0A42DFEE435F091
:100186008067EF4E7005BD80D780C3EF8BF0A4ACBF
:10019600F0EE8BF0A42CFCE435F0F8EF8AF0A42CFA
:1001A600E5F038FCE433CB8DF0A42CFCE5F03BF80D
:1001B600EE8AF0A42CFCE5F038F8E433CF89F0A4FD
:1001C6002CFCE5F038CF3400CE89F0A42FFFE5F003
:1001D6003EFEE433C98DF0A42EFEE5F039CD8AF05B
:1001E600A42FFFE5F03EFEE43DFD33D0E0FB5007D3
:1001F6000BBB000F020360EC2CFCEF33FFEE33FE6B
:06020600ED33FD02033898
:10020C00020360EC5D046005E859047003020356B8
:10021C00120321580460F6EC4860F2EC7004FDFE09
:10022C00FF22C860DB2481C85009C39860025006C5
:10023C0002035D9850CAF582E9294B4A7005AB82DE
:10024C0002034C75F0007C1A7880C3EF9BEE9AED9C
:10025C0099400DC3EF9BFFEE9AFEED99FDE842F03D
:10026C00DC23ACF0D0E0FFD0E0FED0E0FDAB822090
:10027C00E7101BEB60BAEC2CFCEF33FFEE33FEED1A
:10028C0033FD020338E803F830E705C0F075F000E1
:10029C00EF2FFFEE33FEED33FD40B830E7C280AAFE
:1002AC0075F020800E75F010800575F0087D007ECD
:1002BC00007F003392D530D503120439EC33401053
:1002CC00EF33FFEE33FEED33FDEC33FCD5F0ED22D6
:0E02DC00E5F0247EA2D513CC92E7CDCEFF2212
:1002EA00EDD2E7CD33EC3392D524814006E4FFFE0C
:1002FA00FDFC22FCE4CFCECDCC24E0501174FF806B
:10030A00EDC3CC13CCCD13CDCE13CECF13CF047007
:07031A00F030D5DE020439CA
:10032100E9D2E7C933E833F892D5EDD2E7CD33EC22
:0703310033FC5002B2D5229B
:10033800EC30E7100FBF000C0EBE00080DBD000426
:100348000BEB6014A2D5EB13FCED92E7FD2274FFD2
:10035800FCFDFEFF22E480F8A2D574FF13FC7D802B
:03036800E480EF3F
:0300000002056393
:0C056300787FE4F6D8FD7581200205AA1F
:10036B0075F008758200EF2FFFEE33FECD33CDCC49
:10037B0033CCC58233C5829BED9AEC99E5829840CC
:10038B000CF582EE9BFEED9AFDEC99FC0FD5F0D6A9
:10039B00E4CEFBE4CDFAE4CCF9A88222B800C1B9D3
:1003AB000059BA002DEC8BF084CFCECDFCE5F0CB11
:1003BB00F97818EF2FFFEE33FEED33FDEC33FCEB4A
:1003CB0033FB10D703994004EB99FB0FD8E5E4F905
:1003DB00FA227818EF2FFFEE33FEED33FDEC33FCF2
:1003EB00C933C910D7059BE99A4007EC9BFCE99AE6
:1003FB00F90FD8E0E4C9FAE4CCFB2275F010EF2F2B
:10040B00FFEE33FEED33FDCC33CCC833C810D7072A
:10041B009BEC9AE899400AED9BFDEC9AFCE899F865
:0E042B000FD5F0DAE4CDFBE4CCFAE4C8F922F8
:0E043900C3E49FFFE49EFEE49DFDE49CFC22D4
:10044700EB9FF5F0EA9E42F0E99D42F0E89C45F00B
:010457002282
:10056F000205EFE493A3F8E493A34003F68001F2AE
:10057F0008DFF48029E493A3F85407240CC8C3338D
:10058F00C4540F4420C8834004F456800146F6DF5C
:10059F00E4800B0102040810204080900799E47E4C
:1005AF00019360BCA3FF543F30E509541FFEE49351
:1005BF00A360010ECF54C025E060A840B8E493A318
:1005CF00FAE493A3F8E493A3C8C582C8CAC583CA43
:1005DF00F0A3C8C582C8CAC583CADFE9DEE780BEFB
:0107AB00004D
:00000001FF
